{
  "_format": "hh-sol-artifact-1",
  "contractName": "MetaMoose",
  "sourceName": "contracts/MetaMoose.sol",
  "abi": [
    {
      "inputs": [
        {
          "internalType": "uint256[200]",
          "name": "_randomTokenIds",
          "type": "uint256[200]"
        }
      ],
      "stateMutability": "nonpayable",
      "type": "constructor"
    },
    {
      "anonymous": false,
      "inputs": [
        {
          "indexed": true,
          "internalType": "address",
          "name": "owner",
          "type": "address"
        },
        {
          "indexed": true,
          "internalType": "address",
          "name": "approved",
          "type": "address"
        },
        {
          "indexed": true,
          "internalType": "uint256",
          "name": "tokenId",
          "type": "uint256"
        }
      ],
      "name": "Approval",
      "type": "event"
    },
    {
      "anonymous": false,
      "inputs": [
        {
          "indexed": true,
          "internalType": "address",
          "name": "owner",
          "type": "address"
        },
        {
          "indexed": true,
          "internalType": "address",
          "name": "operator",
          "type": "address"
        },
        {
          "indexed": false,
          "internalType": "bool",
          "name": "approved",
          "type": "bool"
        }
      ],
      "name": "ApprovalForAll",
      "type": "event"
    },
    {
      "anonymous": false,
      "inputs": [
        {
          "indexed": true,
          "internalType": "address",
          "name": "recipient",
          "type": "address"
        },
        {
          "indexed": false,
          "internalType": "uint256",
          "name": "tokenId",
          "type": "uint256"
        }
      ],
      "name": "MooseMinted",
      "type": "event"
    },
    {
      "anonymous": false,
      "inputs": [
        {
          "indexed": true,
          "internalType": "address",
          "name": "from",
          "type": "address"
        },
        {
          "indexed": true,
          "internalType": "address",
          "name": "to",
          "type": "address"
        },
        {
          "indexed": true,
          "internalType": "uint256",
          "name": "tokenId",
          "type": "uint256"
        }
      ],
      "name": "Transfer",
      "type": "event"
    },
    {
      "inputs": [],
      "name": "TOTAL_SUPPLY",
      "outputs": [
        {
          "internalType": "uint256",
          "name": "",
          "type": "uint256"
        }
      ],
      "stateMutability": "view",
      "type": "function"
    },
    {
      "inputs": [],
      "name": "amountRemaining",
      "outputs": [
        {
          "internalType": "uint256",
          "name": "",
          "type": "uint256"
        }
      ],
      "stateMutability": "view",
      "type": "function"
    },
    {
      "inputs": [
        {
          "internalType": "address",
          "name": "to",
          "type": "address"
        },
        {
          "internalType": "uint256",
          "name": "tokenId",
          "type": "uint256"
        }
      ],
      "name": "approve",
      "outputs": [],
      "stateMutability": "nonpayable",
      "type": "function"
    },
    {
      "inputs": [
        {
          "internalType": "address",
          "name": "owner",
          "type": "address"
        }
      ],
      "name": "balanceOf",
      "outputs": [
        {
          "internalType": "uint256",
          "name": "",
          "type": "uint256"
        }
      ],
      "stateMutability": "view",
      "type": "function"
    },
    {
      "inputs": [
        {
          "internalType": "uint256",
          "name": "tokenId",
          "type": "uint256"
        }
      ],
      "name": "getApproved",
      "outputs": [
        {
          "internalType": "address",
          "name": "",
          "type": "address"
        }
      ],
      "stateMutability": "view",
      "type": "function"
    },
    {
      "inputs": [
        {
          "internalType": "address",
          "name": "owner",
          "type": "address"
        },
        {
          "internalType": "address",
          "name": "operator",
          "type": "address"
        }
      ],
      "name": "isApprovedForAll",
      "outputs": [
        {
          "internalType": "bool",
          "name": "",
          "type": "bool"
        }
      ],
      "stateMutability": "view",
      "type": "function"
    },
    {
      "inputs": [
        {
          "internalType": "address",
          "name": "_recipient",
          "type": "address"
        }
      ],
      "name": "mintMoose",
      "outputs": [],
      "stateMutability": "nonpayable",
      "type": "function"
    },
    {
      "inputs": [],
      "name": "name",
      "outputs": [
        {
          "internalType": "string",
          "name": "",
          "type": "string"
        }
      ],
      "stateMutability": "view",
      "type": "function"
    },
    {
      "inputs": [],
      "name": "owner",
      "outputs": [
        {
          "internalType": "address",
          "name": "",
          "type": "address"
        }
      ],
      "stateMutability": "view",
      "type": "function"
    },
    {
      "inputs": [
        {
          "internalType": "uint256",
          "name": "tokenId",
          "type": "uint256"
        }
      ],
      "name": "ownerOf",
      "outputs": [
        {
          "internalType": "address",
          "name": "",
          "type": "address"
        }
      ],
      "stateMutability": "view",
      "type": "function"
    },
    {
      "inputs": [
        {
          "internalType": "address",
          "name": "from",
          "type": "address"
        },
        {
          "internalType": "address",
          "name": "to",
          "type": "address"
        },
        {
          "internalType": "uint256",
          "name": "tokenId",
          "type": "uint256"
        }
      ],
      "name": "safeTransferFrom",
      "outputs": [],
      "stateMutability": "nonpayable",
      "type": "function"
    },
    {
      "inputs": [
        {
          "internalType": "address",
          "name": "from",
          "type": "address"
        },
        {
          "internalType": "address",
          "name": "to",
          "type": "address"
        },
        {
          "internalType": "uint256",
          "name": "tokenId",
          "type": "uint256"
        },
        {
          "internalType": "bytes",
          "name": "_data",
          "type": "bytes"
        }
      ],
      "name": "safeTransferFrom",
      "outputs": [],
      "stateMutability": "nonpayable",
      "type": "function"
    },
    {
      "inputs": [
        {
          "internalType": "address",
          "name": "operator",
          "type": "address"
        },
        {
          "internalType": "bool",
          "name": "approved",
          "type": "bool"
        }
      ],
      "name": "setApprovalForAll",
      "outputs": [],
      "stateMutability": "nonpayable",
      "type": "function"
    },
    {
      "inputs": [
        {
          "internalType": "bytes4",
          "name": "interfaceId",
          "type": "bytes4"
        }
      ],
      "name": "supportsInterface",
      "outputs": [
        {
          "internalType": "bool",
          "name": "",
          "type": "bool"
        }
      ],
      "stateMutability": "view",
      "type": "function"
    },
    {
      "inputs": [],
      "name": "symbol",
      "outputs": [
        {
          "internalType": "string",
          "name": "",
          "type": "string"
        }
      ],
      "stateMutability": "view",
      "type": "function"
    },
    {
      "inputs": [
        {
          "internalType": "uint256",
          "name": "tokenId",
          "type": "uint256"
        }
      ],
      "name": "tokenURI",
      "outputs": [
        {
          "internalType": "string",
          "name": "",
          "type": "string"
        }
      ],
      "stateMutability": "view",
      "type": "function"
    },
    {
      "inputs": [],
      "name": "totalSupply",
      "outputs": [
        {
          "internalType": "uint256",
          "name": "",
          "type": "uint256"
        }
      ],
      "stateMutability": "pure",
      "type": "function"
    },
    {
      "inputs": [
        {
          "internalType": "address",
          "name": "from",
          "type": "address"
        },
        {
          "internalType": "address",
          "name": "to",
          "type": "address"
        },
        {
          "internalType": "uint256",
          "name": "tokenId",
          "type": "uint256"
        }
      ],
      "name": "transferFrom",
      "outputs": [],
      "stateMutability": "nonpayable",
      "type": "function"
    }
  ],
  "bytecode": "0x60806040523480156200001157600080fd5b506040516200327338038062003273833981810160405281019062000037919062000307565b6040518060400160405280600981526020017f4d6574614d6f6f736500000000000000000000000000000000000000000000008152506040518060400160405280600281526020017f4d4d0000000000000000000000000000000000000000000000000000000000008152508160009080519060200190620000bb92919062000165565b508060019080519060200190620000d492919062000165565b5050506040518060600160405280603681526020016200323d60369139600890805190602001906200010892919062000165565b508060099060c86200011c929190620001f6565b5033600760006101000a81548173ffffffffffffffffffffffffffffffffffffffff021916908373ffffffffffffffffffffffffffffffffffffffff1602179055505062000485565b828054620001739062000390565b90600052602060002090601f016020900481019282620001975760008555620001e3565b82601f10620001b257805160ff1916838001178555620001e3565b82800160010185558215620001e3579182015b82811115620001e2578251825591602001919060010190620001c5565b5b509050620001f291906200023b565b5090565b8260c8810192821562000228579160200282015b82811115620002275782518255916020019190600101906200020a565b5b5090506200023791906200023b565b5090565b5b80821115620002565760008160009055506001016200023c565b5090565b6000620002716200026b846200035d565b62000334565b905080828560208602820111156200028857600080fd5b60005b85811015620002bc5781620002a18882620002f0565b8452602084019350602083019250506001810190506200028b565b5050509392505050565b600082601f830112620002d857600080fd5b60c8620002e78482856200025a565b91505092915050565b60008151905062000301816200046b565b92915050565b600061190082840312156200031b57600080fd5b60006200032b84828501620002c6565b91505092915050565b60006200034062000353565b90506200034e8282620003c6565b919050565b6000604051905090565b600067ffffffffffffffff8211156200037b576200037a6200042b565b5b602082029050919050565b6000819050919050565b60006002820490506001821680620003a957607f821691505b60208210811415620003c057620003bf620003fc565b5b50919050565b620003d1826200045a565b810181811067ffffffffffffffff82111715620003f357620003f26200042b565b5b80604052505050565b7f4e487b7100000000000000000000000000000000000000000000000000000000600052602260045260246000fd5b7f4e487b7100000000000000000000000000000000000000000000000000000000600052604160045260246000fd5b6000601f19601f8301169050919050565b620004768162000386565b81146200048257600080fd5b50565b612da880620004956000396000f3fe608060405234801561001057600080fd5b50600436106101165760003560e01c80638da5cb5b116100a2578063b88d4fde11610071578063b88d4fde146102e1578063b956f1b6146102fd578063c87b56dd14610319578063e985e9c514610349578063f7ffbd851461037957610116565b80638da5cb5b1461026b578063902d55a51461028957806395d89b41146102a7578063a22cb465146102c557610116565b806318160ddd116100e957806318160ddd146101b557806323b872dd146101d357806342842e0e146101ef5780636352211e1461020b57806370a082311461023b57610116565b806301ffc9a71461011b57806306fdde031461014b578063081812fc14610169578063095ea7b314610199575b600080fd5b61013560048036038101906101309190611dac565b610397565b604051610142919061221a565b60405180910390f35b610153610479565b6040516101609190612235565b60405180910390f35b610183600480360381019061017e9190611dfe565b61050b565b60405161019091906121b3565b60405180910390f35b6101b360048036038101906101ae9190611d70565b610590565b005b6101bd6106a8565b6040516101ca9190612477565b60405180910390f35b6101ed60048036038101906101e89190611c6a565b6106b1565b005b61020960048036038101906102049190611c6a565b610711565b005b61022560048036038101906102209190611dfe565b610731565b60405161023291906121b3565b60405180910390f35b61025560048036038101906102509190611c05565b6107e3565b6040516102629190612477565b60405180910390f35b61027361089b565b60405161028091906121b3565b60405180910390f35b6102916108c1565b60405161029e9190612477565b60405180910390f35b6102af6108c6565b6040516102bc9190612235565b60405180910390f35b6102df60048036038101906102da9190611d34565b610958565b005b6102fb60048036038101906102f69190611cb9565b61096e565b005b61031760048036038101906103129190611c05565b6109d0565b005b610333600480360381019061032e9190611dfe565b610af9565b6040516103409190612235565b60405180910390f35b610363600480360381019061035e9190611c2e565b610c4b565b604051610370919061221a565b60405180910390f35b610381610cdf565b60405161038e9190612477565b60405180910390f35b60007f80ac58cd000000000000000000000000000000000000000000000000000000007bffffffffffffffffffffffffffffffffffffffffffffffffffffffff1916827bffffffffffffffffffffffffffffffffffffffffffffffffffffffff1916148061046257507f5b5e139f000000000000000000000000000000000000000000000000000000007bffffffffffffffffffffffffffffffffffffffffffffffffffffffff1916827bffffffffffffffffffffffffffffffffffffffffffffffffffffffff1916145b80610472575061047182610cfc565b5b9050919050565b6060600080546104889061269c565b80601f01602080910402602001604051908101604052809291908181526020018280546104b49061269c565b80156105015780601f106104d657610100808354040283529160200191610501565b820191906000526020600020905b8154815290600101906020018083116104e457829003601f168201915b5050505050905090565b600061051682610d66565b610555576040517f08c379a000000000000000000000000000000000000000000000000000000000815260040161054c906123d7565b60405180910390fd5b6004600083815260200190815260200160002060009054906101000a900473ffffffffffffffffffffffffffffffffffffffff169050919050565b600061059b82610731565b90508073ffffffffffffffffffffffffffffffffffffffff168373ffffffffffffffffffffffffffffffffffffffff16141561060c576040517f08c379a000000000000000000000000000000000000000000000000000000000815260040161060390612437565b60405180910390fd5b8073ffffffffffffffffffffffffffffffffffffffff1661062b610dd2565b73ffffffffffffffffffffffffffffffffffffffff16148061065a575061065981610654610dd2565b610c4b565b5b610699576040517f08c379a0000000000000000000000000000000000000000000000000000000008152600401610690906122f7565b60405180910390fd5b6106a38383610dda565b505050565b600060c8905090565b6106c26106bc610dd2565b82610e93565b610701576040517f08c379a00000000000000000000000000000000000000000000000000000000081526004016106f890612457565b60405180910390fd5b61070c838383610f71565b505050565b61072c8383836040518060200160405280600081525061096e565b505050565b6000806002600084815260200190815260200160002060009054906101000a900473ffffffffffffffffffffffffffffffffffffffff169050600073ffffffffffffffffffffffffffffffffffffffff168173ffffffffffffffffffffffffffffffffffffffff1614156107da576040517f08c379a00000000000000000000000000000000000000000000000000000000081526004016107d190612357565b60405180910390fd5b80915050919050565b60008073ffffffffffffffffffffffffffffffffffffffff168273ffffffffffffffffffffffffffffffffffffffff161415610854576040517f08c379a000000000000000000000000000000000000000000000000000000000815260040161084b90612337565b60405180910390fd5b600360008373ffffffffffffffffffffffffffffffffffffffff1673ffffffffffffffffffffffffffffffffffffffff168152602001908152602001600020549050919050565b600760009054906101000a900473ffffffffffffffffffffffffffffffffffffffff1681565b60c881565b6060600180546108d59061269c565b80601f01602080910402602001604051908101604052809291908181526020018280546109019061269c565b801561094e5780601f106109235761010080835404028352916020019161094e565b820191906000526020600020905b81548152906001019060200180831161093157829003601f168201915b5050505050905090565b61096a610963610dd2565b83836111cd565b5050565b61097f610979610dd2565b83610e93565b6109be576040517f08c379a00000000000000000000000000000000000000000000000000000000081526004016109b590612457565b60405180910390fd5b6109ca8484848461133a565b50505050565b60006109dc60d1611396565b905060c88110610a21576040517f08c379a0000000000000000000000000000000000000000000000000000000008152600401610a1890612317565b60405180910390fd5b600060098260c88110610a5d577f4e487b7100000000000000000000000000000000000000000000000000000000600052603260045260246000fd5b01549050610a6b83826113a4565b610a9c81610a7883611572565b604051602001610a889190612191565b60405160208183030381529060405261171f565b610aa660d1611793565b3373ffffffffffffffffffffffffffffffffffffffff167f41220c1bfe69741bfc43689f79c116117330c5e2e7ee5b4aefed3b977c3f022982604051610aec9190612477565b60405180910390a2505050565b6060610b0482610d66565b610b43576040517f08c379a0000000000000000000000000000000000000000000000000000000008152600401610b3a906123b7565b60405180910390fd5b6000600660008481526020019081526020016000208054610b639061269c565b80601f0160208091040260200160405190810160405280929190818152602001828054610b8f9061269c565b8015610bdc5780601f10610bb157610100808354040283529160200191610bdc565b820191906000526020600020905b815481529060010190602001808311610bbf57829003601f168201915b505050505090506000610bed6117a9565b9050600081511415610c03578192505050610c46565b600082511115610c38578082604051602001610c2092919061216d565b60405160208183030381529060405292505050610c46565b610c418461183b565b925050505b919050565b6000600560008473ffffffffffffffffffffffffffffffffffffffff1673ffffffffffffffffffffffffffffffffffffffff16815260200190815260200160002060008373ffffffffffffffffffffffffffffffffffffffff1673ffffffffffffffffffffffffffffffffffffffff16815260200190815260200160002060009054906101000a900460ff16905092915050565b6000610ceb60d1611396565b60c8610cf791906125b2565b905090565b60007f01ffc9a7000000000000000000000000000000000000000000000000000000007bffffffffffffffffffffffffffffffffffffffffffffffffffffffff1916827bffffffffffffffffffffffffffffffffffffffffffffffffffffffff1916149050919050565b60008073ffffffffffffffffffffffffffffffffffffffff166002600084815260200190815260200160002060009054906101000a900473ffffffffffffffffffffffffffffffffffffffff1673ffffffffffffffffffffffffffffffffffffffff1614159050919050565b600033905090565b816004600083815260200190815260200160002060006101000a81548173ffffffffffffffffffffffffffffffffffffffff021916908373ffffffffffffffffffffffffffffffffffffffff160217905550808273ffffffffffffffffffffffffffffffffffffffff16610e4d83610731565b73ffffffffffffffffffffffffffffffffffffffff167f8c5be1e5ebec7d5bd14f71427d1e84f3dd0314c0f7b2291e5b200ac8c7c3b92560405160405180910390a45050565b6000610e9e82610d66565b610edd576040517f08c379a0000000000000000000000000000000000000000000000000000000008152600401610ed4906122d7565b60405180910390fd5b6000610ee883610731565b90508073ffffffffffffffffffffffffffffffffffffffff168473ffffffffffffffffffffffffffffffffffffffff161480610f5757508373ffffffffffffffffffffffffffffffffffffffff16610f3f8461050b565b73ffffffffffffffffffffffffffffffffffffffff16145b80610f685750610f678185610c4b565b5b91505092915050565b8273ffffffffffffffffffffffffffffffffffffffff16610f9182610731565b73ffffffffffffffffffffffffffffffffffffffff1614610fe7576040517f08c379a0000000000000000000000000000000000000000000000000000000008152600401610fde906123f7565b60405180910390fd5b600073ffffffffffffffffffffffffffffffffffffffff168273ffffffffffffffffffffffffffffffffffffffff161415611057576040517f08c379a000000000000000000000000000000000000000000000000000000000815260040161104e90612297565b60405180910390fd5b6110628383836118e2565b61106d600082610dda565b6001600360008573ffffffffffffffffffffffffffffffffffffffff1673ffffffffffffffffffffffffffffffffffffffff16815260200190815260200160002060008282546110bd91906125b2565b925050819055506001600360008473ffffffffffffffffffffffffffffffffffffffff1673ffffffffffffffffffffffffffffffffffffffff1681526020019081526020016000206000828254611114919061252b565b92505081905550816002600083815260200190815260200160002060006101000a81548173ffffffffffffffffffffffffffffffffffffffff021916908373ffffffffffffffffffffffffffffffffffffffff160217905550808273ffffffffffffffffffffffffffffffffffffffff168473ffffffffffffffffffffffffffffffffffffffff167fddf252ad1be2c89b69c2b068fc378daa952ba7f163c4a11628f55a4df523b3ef60405160405180910390a4505050565b8173ffffffffffffffffffffffffffffffffffffffff168373ffffffffffffffffffffffffffffffffffffffff16141561123c576040517f08c379a0000000000000000000000000000000000000000000000000000000008152600401611233906122b7565b60405180910390fd5b80600560008573ffffffffffffffffffffffffffffffffffffffff1673ffffffffffffffffffffffffffffffffffffffff16815260200190815260200160002060008473ffffffffffffffffffffffffffffffffffffffff1673ffffffffffffffffffffffffffffffffffffffff16815260200190815260200160002060006101000a81548160ff0219169083151502179055508173ffffffffffffffffffffffffffffffffffffffff168373ffffffffffffffffffffffffffffffffffffffff167f17307eab39ab6107e8899845ad3d59bd9653f200f220920489ca2b5937696c318360405161132d919061221a565b60405180910390a3505050565b611345848484610f71565b611351848484846118e7565b611390576040517f08c379a000000000000000000000000000000000000000000000000000000000815260040161138790612257565b60405180910390fd5b50505050565b600081600001549050919050565b600073ffffffffffffffffffffffffffffffffffffffff168273ffffffffffffffffffffffffffffffffffffffff161415611414576040517f08c379a000000000000000000000000000000000000000000000000000000000815260040161140b90612397565b60405180910390fd5b61141d81610d66565b1561145d576040517f08c379a000000000000000000000000000000000000000000000000000000000815260040161145490612277565b60405180910390fd5b611469600083836118e2565b6001600360008473ffffffffffffffffffffffffffffffffffffffff1673ffffffffffffffffffffffffffffffffffffffff16815260200190815260200160002060008282546114b9919061252b565b92505081905550816002600083815260200190815260200160002060006101000a81548173ffffffffffffffffffffffffffffffffffffffff021916908373ffffffffffffffffffffffffffffffffffffffff160217905550808273ffffffffffffffffffffffffffffffffffffffff16600073ffffffffffffffffffffffffffffffffffffffff167fddf252ad1be2c89b69c2b068fc378daa952ba7f163c4a11628f55a4df523b3ef60405160405180910390a45050565b606060008214156115ba576040518060400160405280600181526020017f3000000000000000000000000000000000000000000000000000000000000000815250905061171a565b600082905060005b600082146115ec5780806115d5906126ff565b915050600a826115e59190612581565b91506115c2565b60008167ffffffffffffffff81111561162e577f4e487b7100000000000000000000000000000000000000000000000000000000600052604160045260246000fd5b6040519080825280601f01601f1916602001820160405280156116605781602001600182028036833780820191505090505b5090505b600085146117135760018261167991906125b2565b9150600a856116889190612748565b6030611694919061252b565b60f81b8183815181106116d0577f4e487b7100000000000000000000000000000000000000000000000000000000600052603260045260246000fd5b60200101907effffffffffffffffffffffffffffffffffffffffffffffffffffffffffffff1916908160001a905350600a8561170c9190612581565b9450611664565b8093505050505b919050565b61172882610d66565b611767576040517f08c379a000000000000000000000000000000000000000000000000000000000815260040161175e90612377565b60405180910390fd5b8060066000848152602001908152602001600020908051906020019061178e929190611a91565b505050565b6001816000016000828254019250508190555050565b6060600880546117b89061269c565b80601f01602080910402602001604051908101604052809291908181526020018280546117e49061269c565b80156118315780601f1061180657610100808354040283529160200191611831565b820191906000526020600020905b81548152906001019060200180831161181457829003601f168201915b5050505050905090565b606061184682610d66565b611885576040517f08c379a000000000000000000000000000000000000000000000000000000000815260040161187c90612417565b60405180910390fd5b600061188f6117a9565b905060008151116118af57604051806020016040528060008152506118da565b806118b984611572565b6040516020016118ca92919061216d565b6040516020818303038152906040525b915050919050565b505050565b60006119088473ffffffffffffffffffffffffffffffffffffffff16611a7e565b15611a71578373ffffffffffffffffffffffffffffffffffffffff1663150b7a02611931610dd2565b8786866040518563ffffffff1660e01b815260040161195394939291906121ce565b602060405180830381600087803b15801561196d57600080fd5b505af192505050801561199e57506040513d601f19601f8201168201806040525081019061199b9190611dd5565b60015b611a21573d80600081146119ce576040519150601f19603f3d011682016040523d82523d6000602084013e6119d3565b606091505b50600081511415611a19576040517f08c379a0000000000000000000000000000000000000000000000000000000008152600401611a1090612257565b60405180910390fd5b805181602001fd5b63150b7a0260e01b7bffffffffffffffffffffffffffffffffffffffffffffffffffffffff1916817bffffffffffffffffffffffffffffffffffffffffffffffffffffffff191614915050611a76565b600190505b949350505050565b600080823b905060008111915050919050565b828054611a9d9061269c565b90600052602060002090601f016020900481019282611abf5760008555611b06565b82601f10611ad857805160ff1916838001178555611b06565b82800160010185558215611b06579182015b82811115611b05578251825591602001919060010190611aea565b5b509050611b139190611b17565b5090565b5b80821115611b30576000816000905550600101611b18565b5090565b6000611b47611b42846124b7565b612492565b905082815260208101848484011115611b5f57600080fd5b611b6a84828561265a565b509392505050565b600081359050611b8181612d16565b92915050565b600081359050611b9681612d2d565b92915050565b600081359050611bab81612d44565b92915050565b600081519050611bc081612d44565b92915050565b600082601f830112611bd757600080fd5b8135611be7848260208601611b34565b91505092915050565b600081359050611bff81612d5b565b92915050565b600060208284031215611c1757600080fd5b6000611c2584828501611b72565b91505092915050565b60008060408385031215611c4157600080fd5b6000611c4f85828601611b72565b9250506020611c6085828601611b72565b9150509250929050565b600080600060608486031215611c7f57600080fd5b6000611c8d86828701611b72565b9350506020611c9e86828701611b72565b9250506040611caf86828701611bf0565b9150509250925092565b60008060008060808587031215611ccf57600080fd5b6000611cdd87828801611b72565b9450506020611cee87828801611b72565b9350506040611cff87828801611bf0565b925050606085013567ffffffffffffffff811115611d1c57600080fd5b611d2887828801611bc6565b91505092959194509250565b60008060408385031215611d4757600080fd5b6000611d5585828601611b72565b9250506020611d6685828601611b87565b9150509250929050565b60008060408385031215611d8357600080fd5b6000611d9185828601611b72565b9250506020611da285828601611bf0565b9150509250929050565b600060208284031215611dbe57600080fd5b6000611dcc84828501611b9c565b91505092915050565b600060208284031215611de757600080fd5b6000611df584828501611bb1565b91505092915050565b600060208284031215611e1057600080fd5b6000611e1e84828501611bf0565b91505092915050565b611e30816125e6565b82525050565b611e3f816125f8565b82525050565b6000611e50826124e8565b611e5a81856124fe565b9350611e6a818560208601612669565b611e7381612835565b840191505092915050565b6000611e89826124f3565b611e93818561250f565b9350611ea3818560208601612669565b611eac81612835565b840191505092915050565b6000611ec2826124f3565b611ecc8185612520565b9350611edc818560208601612669565b80840191505092915050565b6000611ef560328361250f565b9150611f0082612846565b604082019050919050565b6000611f18601c8361250f565b9150611f2382612895565b602082019050919050565b6000611f3b60248361250f565b9150611f46826128be565b604082019050919050565b6000611f5e60198361250f565b9150611f698261290d565b602082019050919050565b6000611f81602c8361250f565b9150611f8c82612936565b604082019050919050565b6000611fa460388361250f565b9150611faf82612985565b604082019050919050565b6000611fc760078361250f565b9150611fd2826129d4565b602082019050919050565b6000611fea602a8361250f565b9150611ff5826129fd565b604082019050919050565b600061200d60298361250f565b915061201882612a4c565b604082019050919050565b6000612030602e8361250f565b915061203b82612a9b565b604082019050919050565b600061205360208361250f565b915061205e82612aea565b602082019050919050565b600061207660318361250f565b915061208182612b13565b604082019050919050565b6000612099602c8361250f565b91506120a482612b62565b604082019050919050565b60006120bc600583612520565b91506120c782612bb1565b600582019050919050565b60006120df60298361250f565b91506120ea82612bda565b604082019050919050565b6000612102602f8361250f565b915061210d82612c29565b604082019050919050565b600061212560218361250f565b915061213082612c78565b604082019050919050565b600061214860318361250f565b915061215382612cc7565b604082019050919050565b61216781612650565b82525050565b60006121798285611eb7565b91506121858284611eb7565b91508190509392505050565b600061219d8284611eb7565b91506121a8826120af565b915081905092915050565b60006020820190506121c86000830184611e27565b92915050565b60006080820190506121e36000830187611e27565b6121f06020830186611e27565b6121fd604083018561215e565b818103606083015261220f8184611e45565b905095945050505050565b600060208201905061222f6000830184611e36565b92915050565b6000602082019050818103600083015261224f8184611e7e565b905092915050565b6000602082019050818103600083015261227081611ee8565b9050919050565b6000602082019050818103600083015261229081611f0b565b9050919050565b600060208201905081810360008301526122b081611f2e565b9050919050565b600060208201905081810360008301526122d081611f51565b9050919050565b600060208201905081810360008301526122f081611f74565b9050919050565b6000602082019050818103600083015261231081611f97565b9050919050565b6000602082019050818103600083015261233081611fba565b9050919050565b6000602082019050818103600083015261235081611fdd565b9050919050565b6000602082019050818103600083015261237081612000565b9050919050565b6000602082019050818103600083015261239081612023565b9050919050565b600060208201905081810360008301526123b081612046565b9050919050565b600060208201905081810360008301526123d081612069565b9050919050565b600060208201905081810360008301526123f08161208c565b9050919050565b60006020820190508181036000830152612410816120d2565b9050919050565b60006020820190508181036000830152612430816120f5565b9050919050565b6000602082019050818103600083015261245081612118565b9050919050565b600060208201905081810360008301526124708161213b565b9050919050565b600060208201905061248c600083018461215e565b92915050565b600061249c6124ad565b90506124a882826126ce565b919050565b6000604051905090565b600067ffffffffffffffff8211156124d2576124d1612806565b5b6124db82612835565b9050602081019050919050565b600081519050919050565b600081519050919050565b600082825260208201905092915050565b600082825260208201905092915050565b600081905092915050565b600061253682612650565b915061254183612650565b9250827fffffffffffffffffffffffffffffffffffffffffffffffffffffffffffffffff0382111561257657612575612779565b5b828201905092915050565b600061258c82612650565b915061259783612650565b9250826125a7576125a66127a8565b5b828204905092915050565b60006125bd82612650565b91506125c883612650565b9250828210156125db576125da612779565b5b828203905092915050565b60006125f182612630565b9050919050565b60008115159050919050565b60007fffffffff0000000000000000000000000000000000000000000000000000000082169050919050565b600073ffffffffffffffffffffffffffffffffffffffff82169050919050565b6000819050919050565b82818337600083830152505050565b60005b8381101561268757808201518184015260208101905061266c565b83811115612696576000848401525b50505050565b600060028204905060018216806126b457607f821691505b602082108114156126c8576126c76127d7565b5b50919050565b6126d782612835565b810181811067ffffffffffffffff821117156126f6576126f5612806565b5b80604052505050565b600061270a82612650565b91507fffffffffffffffffffffffffffffffffffffffffffffffffffffffffffffffff82141561273d5761273c612779565b5b600182019050919050565b600061275382612650565b915061275e83612650565b92508261276e5761276d6127a8565b5b828206905092915050565b7f4e487b7100000000000000000000000000000000000000000000000000000000600052601160045260246000fd5b7f4e487b7100000000000000000000000000000000000000000000000000000000600052601260045260246000fd5b7f4e487b7100000000000000000000000000000000000000000000000000000000600052602260045260246000fd5b7f4e487b7100000000000000000000000000000000000000000000000000000000600052604160045260246000fd5b6000601f19601f8301169050919050565b7f4552433732313a207472616e7366657220746f206e6f6e20455243373231526560008201527f63656976657220696d706c656d656e7465720000000000000000000000000000602082015250565b7f4552433732313a20746f6b656e20616c7265616479206d696e74656400000000600082015250565b7f4552433732313a207472616e7366657220746f20746865207a65726f2061646460008201527f7265737300000000000000000000000000000000000000000000000000000000602082015250565b7f4552433732313a20617070726f766520746f2063616c6c657200000000000000600082015250565b7f4552433732313a206f70657261746f7220717565727920666f72206e6f6e657860008201527f697374656e7420746f6b656e0000000000000000000000000000000000000000602082015250565b7f4552433732313a20617070726f76652063616c6c6572206973206e6f74206f7760008201527f6e6572206e6f7220617070726f76656420666f7220616c6c0000000000000000602082015250565b7f536f6c646f757400000000000000000000000000000000000000000000000000600082015250565b7f4552433732313a2062616c616e636520717565727920666f7220746865207a6560008201527f726f206164647265737300000000000000000000000000000000000000000000602082015250565b7f4552433732313a206f776e657220717565727920666f72206e6f6e657869737460008201527f656e7420746f6b656e0000000000000000000000000000000000000000000000602082015250565b7f45524337323155524953746f726167653a2055524920736574206f66206e6f6e60008201527f6578697374656e7420746f6b656e000000000000000000000000000000000000602082015250565b7f4552433732313a206d696e7420746f20746865207a65726f2061646472657373600082015250565b7f45524337323155524953746f726167653a2055524920717565727920666f722060008201527f6e6f6e6578697374656e7420746f6b656e000000000000000000000000000000602082015250565b7f4552433732313a20617070726f76656420717565727920666f72206e6f6e657860008201527f697374656e7420746f6b656e0000000000000000000000000000000000000000602082015250565b7f2e6a736f6e000000000000000000000000000000000000000000000000000000600082015250565b7f4552433732313a207472616e73666572206f6620746f6b656e2074686174206960008201527f73206e6f74206f776e0000000000000000000000000000000000000000000000602082015250565b7f4552433732314d657461646174613a2055524920717565727920666f72206e6f60008201527f6e6578697374656e7420746f6b656e0000000000000000000000000000000000602082015250565b7f4552433732313a20617070726f76616c20746f2063757272656e74206f776e6560008201527f7200000000000000000000000000000000000000000000000000000000000000602082015250565b7f4552433732313a207472616e736665722063616c6c6572206973206e6f74206f60008201527f776e6572206e6f7220617070726f766564000000000000000000000000000000602082015250565b612d1f816125e6565b8114612d2a57600080fd5b50565b612d36816125f8565b8114612d4157600080fd5b50565b612d4d81612604565b8114612d5857600080fd5b50565b612d6481612650565b8114612d6f57600080fd5b5056fea264697066735822122065d2404d3e13c6b2cd821c65c5d6e7b1205e3ced64d87720288b7384efb9d1a664736f6c63430008040033697066733a2f2f516d61324b3355363963797a4151795464544e66454c783675396b584b6f6b486b4d59456e456666636943555a592f",
  "linkReferences": {},
  "deployedLinkReferences": {}
}